{
  "contractName": "SortedClasificator",
  "abi": [
    {
      "inputs": [
        {
          "components": [
            {
              "internalType": "string",
              "name": "Name",
              "type": "string"
            },
            {
              "internalType": "string",
              "name": "FaculcyNumber",
              "type": "string"
            },
            {
              "internalType": "uint256",
              "name": "Grade",
              "type": "uint256"
            },
            {
              "internalType": "address payable",
              "name": "Address",
              "type": "address"
            },
            {
              "internalType": "bool",
              "name": "Valid",
              "type": "bool"
            }
          ],
          "internalType": "struct DataTypes.Candidate[]",
          "name": "data",
          "type": "tuple[]"
        }
      ],
      "name": "createClasation",
      "outputs": [
        {
          "components": [
            {
              "internalType": "string",
              "name": "Name",
              "type": "string"
            },
            {
              "internalType": "string",
              "name": "FaculcyNumber",
              "type": "string"
            },
            {
              "internalType": "uint256",
              "name": "Grade",
              "type": "uint256"
            },
            {
              "internalType": "address payable",
              "name": "Address",
              "type": "address"
            },
            {
              "internalType": "bool",
              "name": "Valid",
              "type": "bool"
            }
          ],
          "internalType": "struct DataTypes.Candidate[]",
          "name": "",
          "type": "tuple[]"
        }
      ],
      "stateMutability": "nonpayable",
      "type": "function"
    }
  ],
  "bytecode": "0x608060405234801561001057600080fd5b5061079e806100206000396000f3fe608060405234801561001057600080fd5b506004361061002b5760003560e01c8063bde5ce9e14610030575b600080fd5b61004a600480360381019061004591906103d5565b610060565b6040516100579190610582565b60405180910390f35b6060610072826000600185510361007a565b819050919050565b60008290506000829050808214156100935750506101ca565b61009b6101cf565b856002868603816100a857fe5b058601815181106100b557fe5b602002602001015190505b81831361019e575b80604001518684815181106100d957fe5b60200260200101516040015110156100f85782806001019350506100c8565b5b85828151811061010557fe5b6020026020010151604001518160400151101561012a578180600190039250506100f9565b8183136101995785828151811061013d57fe5b602002602001015186848151811061015157fe5b602002602001015187858151811061016557fe5b6020026020010188858151811061017857fe5b60200260200101829052829052505082806001019350508180600190039250505b6100c0565b818512156101b2576101b186868461007a565b5b838312156101c6576101c586848661007a565b5b5050505b505050565b6040518060a00160405280606081526020016060815260200160008152602001600073ffffffffffffffffffffffffffffffffffffffff1681526020016000151581525090565b60008135905061022581610723565b92915050565b600082601f83011261023c57600080fd5b813561024f61024a826105d5565b6105a4565b9150818183526020840193506020810190508360005b83811015610295578135860161027b8882610308565b845260208401935060208301925050600181019050610265565b5050505092915050565b6000813590506102ae8161073a565b92915050565b600082601f8301126102c557600080fd5b81356102d86102d382610601565b6105a4565b915080825260208301602083018583830111156102f457600080fd5b6102ff8382846106ce565b50505092915050565b600060a0828403121561031a57600080fd5b61032460a06105a4565b9050600082013567ffffffffffffffff81111561034057600080fd5b61034c848285016102b4565b600083015250602082013567ffffffffffffffff81111561036c57600080fd5b610378848285016102b4565b602083015250604061038c848285016103c0565b60408301525060606103a084828501610216565b60608301525060806103b48482850161029f565b60808301525092915050565b6000813590506103cf81610751565b92915050565b6000602082840312156103e757600080fd5b600082013567ffffffffffffffff81111561040157600080fd5b61040d8482850161022b565b91505092915050565b600061042283836104f6565b905092915050565b61043381610686565b82525050565b600061044482610641565b61044e8185610664565b93508360208202850161046085610631565b8060005b8581101561049c578484038952815161047d8582610416565b945061048883610657565b925060208a01995050600181019050610464565b50829750879550505050505092915050565b6104b781610698565b82525050565b60006104c88261064c565b6104d28185610675565b93506104e28185602086016106dd565b6104eb81610712565b840191505092915050565b600060a083016000830151848203600086015261051382826104bd565b9150506020830151848203602086015261052d82826104bd565b91505060408301516105426040860182610573565b506060830151610555606086018261042a565b50608083015161056860808601826104ae565b508091505092915050565b61057c816106c4565b82525050565b6000602082019050818103600083015261059c8184610439565b905092915050565b6000604051905081810181811067ffffffffffffffff821117156105cb576105ca610710565b5b8060405250919050565b600067ffffffffffffffff8211156105f0576105ef610710565b5b602082029050602081019050919050565b600067ffffffffffffffff82111561061c5761061b610710565b5b601f19601f8301169050602081019050919050565b6000819050602082019050919050565b600081519050919050565b600081519050919050565b6000602082019050919050565b600082825260208201905092915050565b600082825260208201905092915050565b6000610691826106a4565b9050919050565b60008115159050919050565b600073ffffffffffffffffffffffffffffffffffffffff82169050919050565b6000819050919050565b82818337600083830152505050565b60005b838110156106fb5780820151818401526020810190506106e0565b8381111561070a576000848401525b50505050565bfe5b6000601f19601f8301169050919050565b61072c81610686565b811461073757600080fd5b50565b61074381610698565b811461074e57600080fd5b50565b61075a816106c4565b811461076557600080fd5b5056fea2646970667358221220fe478de91d95d1b53d7bac64dbaaa025f802641202212920fe05d697a27d863c64736f6c63430007040033",
  "immutableReferences": {},
  "source": "// SPDX-License-Identifier: GPL-3.0\r\npragma solidity >=0.7.4 <0.9.0;\r\npragma experimental ABIEncoderV2;\r\n\r\nimport \"./DataTypes.sol\";\r\nimport \"./IClasify.sol\";\r\n\r\ncontract SortedClasificator is IClasify{\r\n    \r\n    function createClasation(DataTypes.Candidate[] memory data) external override returns(DataTypes.Candidate[] memory) {\r\n       quickSort(data, int(0), int(data.length - 1));\r\n       return data;\r\n    }\r\n    \r\n    function quickSort(DataTypes.Candidate[] memory arr, int left, int right) internal{\r\n        int i = left;\r\n        int j = right;\r\n        if(i==j) return;\r\n        DataTypes.Candidate memory pivot = arr[uint(left + (right - left) / 2)];\r\n        while (i <= j) {\r\n            while (arr[uint(i)].Grade < pivot.Grade) i++;\r\n            while (pivot.Grade < arr[uint(j)].Grade) j--;\r\n            if (i <= j) {\r\n                (arr[uint(i)], arr[uint(j)]) = (arr[uint(j)], arr[uint(i)]);\r\n                i++;\r\n                j--;\r\n            }\r\n        }\r\n        if (left < j)\r\n            quickSort(arr, left, j);\r\n        if (i < right)\r\n            quickSort(arr, i, right);\r\n    }\r\n}\r\n\r\ncontract StipendCenter {\r\n    \r\n    DataTypes.Candidate[] public candidates;\r\n    DataTypes.Dispute[] public disputes;\r\n    uint public stake;\r\n    address public owner;\r\n    address public keeper;\r\n    uint public startDate;\r\n    uint public clasationPeriod;\r\n    uint public disputePeriod;\r\n    IClasify public clasificator;\r\n    \r\n    constructor(uint _stake, address _keeper, uint _clasationPeriod, uint _disputePeriod) {\r\n        owner = msg.sender;\r\n        stake = _stake;\r\n        keeper = _keeper;\r\n        startDate = block.timestamp;\r\n        clasationPeriod = _clasationPeriod;\r\n        disputePeriod = _disputePeriod;\r\n        \r\n        //hardcoded\r\n        clasificator = new SortedClasificator();\r\n    }\r\n    \r\n    modifier inClastaionState() {\r\n        require(block.timestamp < startDate + clasationPeriod * 1 days, \"Clasation period is over!\");\r\n        _;\r\n    }\r\n    \r\n    modifier inDesputeState(){\r\n        require(block.timestamp < startDate + clasationPeriod * 1 days + disputePeriod * 1 days, \"Dispute period is over!\");\r\n        _;\r\n    }\r\n    \r\n    modifier inFinalState(){\r\n        require(block.timestamp >= startDate + clasationPeriod  * 1 days+ disputePeriod * 1 days, \"Dispute period is over!\");\r\n        _;\r\n    }\r\n    \r\n    \r\n    function createClasation() external inDesputeState {\r\n        DataTypes.Candidate[] memory x = clasificator.createClasation(candidates);\r\n\r\n        for(uint i = 0; i < candidates.length; i++){\r\n            candidates[i] = x[i];\r\n        }\r\n        \r\n    }\r\n    \r\n    function receiveStipends(uint nStipends) external payable inFinalState{ //TODO edit return stake\r\n        uint singleTransfer = msg.value / candidates.length;\r\n        uint i = 0;\r\n        for(uint j = 0; j < nStipends && i <  candidates.length; i++){\r\n            if(candidates[i].Valid){\r\n                candidates[i].Address.transfer(singleTransfer + stake);\r\n                j++;\r\n            }\r\n        }\r\n        \r\n        while(i <  candidates.length){\r\n            if(candidates[i].Valid){\r\n                candidates[i].Address.transfer(stake);\r\n            }\r\n            i++;\r\n        }\r\n    }\r\n\r\n    event NewCandidate();\r\n\r\n    function addNewCandidate(string memory name, string memory faculcyNumber, uint grade, address payable studentAddress) external payable inClastaionState{\r\n        require(studentAddress == msg.sender, \"StudentAddress and sender must be the same address\");\r\n        require(msg.value == stake, \"The send value is different than the required!\");\r\n        DataTypes.Candidate memory newCandidate = DataTypes.Candidate(name, faculcyNumber, grade, studentAddress, true);\r\n        candidates.push(newCandidate);\r\n        emit NewCandidate();\r\n    }\r\n\r\n    function getCandidatesNum() public view returns (uint) {\r\n        return candidates.length;\r\n    }\r\n    \r\n    event NewDispute();\r\n    function opendDispute(uint id, address payable openBy) external inDesputeState{\r\n        require(openBy == msg.sender, \"OpenBy and sender must be the same address\");\r\n        DataTypes.Dispute memory newDispute = DataTypes.Dispute(id, openBy, true);\r\n        disputes.push(newDispute);\r\n        emit NewDispute();\r\n    }\r\n    \r\n    function getDisputeNum() public view returns (uint) {\r\n        return disputes.length;\r\n    }\r\n    \r\n    function resolveDisput(uint disputeId, bool isValid) external inDesputeState{\r\n        require(disputes[disputeId].Open, \"This dispute is already closed!\");\r\n        require(msg.sender == keeper, \"Only the keeper can resolve Disputes!\");\r\n        if(!isValid){\r\n            candidates[disputes[disputeId].CandidateId].Valid = false;\r\n            disputes[disputeId].OpenedBy.transfer(stake);\r\n        }\r\n        disputes[disputeId].Open = false;\r\n    }\r\n}\r\n\r\n\r\n\r\n\r\n",
  "sourcePath": "C:/BlockChain/fmi-blockchain/contracts/StipendCenter.sol",
  "compiler": {
    "name": "solc",
    "version": "0.7.4+commit.3f05b770.Emscripten.clang"
  },
  "schemaVersion": "3.3.3",
  "updatedAt": "2021-02-04T12:20:46.088Z",
  "devdoc": {
    "kind": "dev",
    "methods": {},
    "version": 1
  },
  "userdoc": {
    "kind": "user",
    "methods": {},
    "version": 1
  }
}