{
  "contractName": "StipendCenter",
  "abi": [
    {
      "inputs": [
        {
          "internalType": "uint256",
          "name": "_stake",
          "type": "uint256"
        },
        {
          "internalType": "address",
          "name": "_keeper",
          "type": "address"
        },
        {
          "internalType": "uint256",
          "name": "_clasationPeriod",
          "type": "uint256"
        },
        {
          "internalType": "uint256",
          "name": "_disputePeriod",
          "type": "uint256"
        }
      ],
      "stateMutability": "nonpayable",
      "type": "constructor"
    },
    {
      "anonymous": false,
      "inputs": [],
      "name": "NewCandidate",
      "type": "event"
    },
    {
      "anonymous": false,
      "inputs": [],
      "name": "NewDispute",
      "type": "event"
    },
    {
      "inputs": [
        {
          "internalType": "uint256",
          "name": "",
          "type": "uint256"
        }
      ],
      "name": "candidates",
      "outputs": [
        {
          "internalType": "string",
          "name": "Name",
          "type": "string"
        },
        {
          "internalType": "string",
          "name": "FaculcyNumber",
          "type": "string"
        },
        {
          "internalType": "uint256",
          "name": "Grade",
          "type": "uint256"
        },
        {
          "internalType": "address payable",
          "name": "Address",
          "type": "address"
        },
        {
          "internalType": "bool",
          "name": "Valid",
          "type": "bool"
        }
      ],
      "stateMutability": "view",
      "type": "function",
      "constant": true
    },
    {
      "inputs": [],
      "name": "clasationPeriod",
      "outputs": [
        {
          "internalType": "uint256",
          "name": "",
          "type": "uint256"
        }
      ],
      "stateMutability": "view",
      "type": "function",
      "constant": true
    },
    {
      "inputs": [],
      "name": "clasificator",
      "outputs": [
        {
          "internalType": "contract IClasify",
          "name": "",
          "type": "address"
        }
      ],
      "stateMutability": "view",
      "type": "function",
      "constant": true
    },
    {
      "inputs": [],
      "name": "disputePeriod",
      "outputs": [
        {
          "internalType": "uint256",
          "name": "",
          "type": "uint256"
        }
      ],
      "stateMutability": "view",
      "type": "function",
      "constant": true
    },
    {
      "inputs": [
        {
          "internalType": "uint256",
          "name": "",
          "type": "uint256"
        }
      ],
      "name": "disputes",
      "outputs": [
        {
          "internalType": "uint256",
          "name": "CandidateId",
          "type": "uint256"
        },
        {
          "internalType": "address payable",
          "name": "OpenedBy",
          "type": "address"
        },
        {
          "internalType": "bool",
          "name": "Open",
          "type": "bool"
        }
      ],
      "stateMutability": "view",
      "type": "function",
      "constant": true
    },
    {
      "inputs": [],
      "name": "keeper",
      "outputs": [
        {
          "internalType": "address",
          "name": "",
          "type": "address"
        }
      ],
      "stateMutability": "view",
      "type": "function",
      "constant": true
    },
    {
      "inputs": [],
      "name": "owner",
      "outputs": [
        {
          "internalType": "address",
          "name": "",
          "type": "address"
        }
      ],
      "stateMutability": "view",
      "type": "function",
      "constant": true
    },
    {
      "inputs": [],
      "name": "stake",
      "outputs": [
        {
          "internalType": "uint256",
          "name": "",
          "type": "uint256"
        }
      ],
      "stateMutability": "view",
      "type": "function",
      "constant": true
    },
    {
      "inputs": [],
      "name": "startDate",
      "outputs": [
        {
          "internalType": "uint256",
          "name": "",
          "type": "uint256"
        }
      ],
      "stateMutability": "view",
      "type": "function",
      "constant": true
    },
    {
      "inputs": [],
      "name": "createClasation",
      "outputs": [],
      "stateMutability": "nonpayable",
      "type": "function"
    },
    {
      "inputs": [
        {
          "internalType": "uint256",
          "name": "nStipends",
          "type": "uint256"
        }
      ],
      "name": "receiveStipends",
      "outputs": [],
      "stateMutability": "payable",
      "type": "function",
      "payable": true
    },
    {
      "inputs": [
        {
          "internalType": "string",
          "name": "name",
          "type": "string"
        },
        {
          "internalType": "string",
          "name": "faculcyNumber",
          "type": "string"
        },
        {
          "internalType": "uint256",
          "name": "grade",
          "type": "uint256"
        },
        {
          "internalType": "address payable",
          "name": "studentAddress",
          "type": "address"
        }
      ],
      "name": "addNewCandidate",
      "outputs": [],
      "stateMutability": "payable",
      "type": "function",
      "payable": true
    },
    {
      "inputs": [],
      "name": "getCandidatesNum",
      "outputs": [
        {
          "internalType": "uint256",
          "name": "",
          "type": "uint256"
        }
      ],
      "stateMutability": "view",
      "type": "function",
      "constant": true
    },
    {
      "inputs": [
        {
          "internalType": "uint256",
          "name": "id",
          "type": "uint256"
        },
        {
          "internalType": "address payable",
          "name": "openBy",
          "type": "address"
        }
      ],
      "name": "opendDispute",
      "outputs": [],
      "stateMutability": "nonpayable",
      "type": "function"
    },
    {
      "inputs": [],
      "name": "getDisputeNum",
      "outputs": [
        {
          "internalType": "uint256",
          "name": "",
          "type": "uint256"
        }
      ],
      "stateMutability": "view",
      "type": "function",
      "constant": true
    },
    {
      "inputs": [
        {
          "internalType": "uint256",
          "name": "disputeId",
          "type": "uint256"
        },
        {
          "internalType": "bool",
          "name": "isValid",
          "type": "bool"
        }
      ],
      "name": "resolveDisput",
      "outputs": [],
      "stateMutability": "nonpayable",
      "type": "function"
    }
  ],
  "bytecode": "0x60806040523480156200001157600080fd5b50604051620029d8380380620029d8833981810160405281019062000037919062000187565b33600360006101000a81548173ffffffffffffffffffffffffffffffffffffffff021916908373ffffffffffffffffffffffffffffffffffffffff1602179055508360028190555082600460006101000a81548173ffffffffffffffffffffffffffffffffffffffff021916908373ffffffffffffffffffffffffffffffffffffffff160217905550426005819055508160068190555080600781905550604051620000e3906200014b565b604051809103906000f08015801562000100573d6000803e3d6000fd5b50600860006101000a81548173ffffffffffffffffffffffffffffffffffffffff021916908373ffffffffffffffffffffffffffffffffffffffff1602179055505050505062000265565b6107be806200221a83390190565b6000815190506200016a8162000231565b92915050565b60008151905062000181816200024b565b92915050565b600080600080608085870312156200019e57600080fd5b6000620001ae8782880162000170565b9450506020620001c18782880162000159565b9350506040620001d48782880162000170565b9250506060620001e78782880162000170565b91505092959194509250565b6000620002008262000207565b9050919050565b600073ffffffffffffffffffffffffffffffffffffffff82169050919050565b6000819050919050565b6200023c81620001f3565b81146200024857600080fd5b50565b620002568162000227565b81146200026257600080fd5b50565b611fa580620002756000396000f3fe6080604052600436106100f35760003560e01c806368fd5ff21161008a578063d50ead6211610059578063d50ead6214610315578063dbfcb8cd1461032c578063dd28c39914610357578063ed38b52b14610380576100f3565b806368fd5ff21461027a5780638da5cb5b1461029657806397880016146102c1578063aced1661146102ea576100f3565b80633a4b66f1116100c65780633a4b66f1146101ba578063564a565d146101e55780635bf31d4d146102245780635e3adb431461024f576100f3565b80630102aab8146100f85780630b97bc8614610123578063219474181461014e5780633477ee2e14610179575b600080fd5b34801561010457600080fd5b5061010d61039c565b60405161011a9190611c59565b60405180910390f35b34801561012f57600080fd5b506101386103a9565b6040516101459190611c59565b60405180910390f35b34801561015a57600080fd5b506101636103af565b6040516101709190611c59565b60405180910390f35b34801561018557600080fd5b506101a0600480360381019061019b9190611568565b6103bb565b6040516101b1959493929190611b18565b60405180910390f35b3480156101c657600080fd5b506101cf61055e565b6040516101dc9190611c59565b60405180910390f35b3480156101f157600080fd5b5061020c60048036038101906102079190611568565b610564565b60405161021b93929190611c74565b60405180910390f35b34801561023057600080fd5b506102396105cb565b6040516102469190611c59565b60405180910390f35b34801561025b57600080fd5b506102646105d1565b6040516102719190611afd565b60405180910390f35b610294600480360381019061028f91906114d5565b6105f7565b005b3480156102a257600080fd5b506102ab61084c565b6040516102b89190611ac0565b60405180910390f35b3480156102cd57600080fd5b506102e860048036038101906102e39190611591565b610872565b005b3480156102f657600080fd5b506102ff610a44565b60405161030c9190611ac0565b60405180910390f35b34801561032157600080fd5b5061032a610a6a565b005b34801561033857600080fd5b50610341610c75565b60405161034e9190611c59565b60405180910390f35b34801561036357600080fd5b5061037e600480360381019061037991906115cd565b610c7b565b005b61039a60048036038101906103959190611568565b610ee8565b005b6000600180549050905090565b60055481565b60008080549050905090565b600081815481106103cb57600080fd5b9060005260206000209060040201600091509050806000018054600181600116156101000203166002900480601f0160208091040260200160405190810160405280929190818152602001828054600181600116156101000203166002900480156104775780601f1061044c57610100808354040283529160200191610477565b820191906000526020600020905b81548152906001019060200180831161045a57829003601f168201915b505050505090806001018054600181600116156101000203166002900480601f0160208091040260200160405190810160405280929190818152602001828054600181600116156101000203166002900480156105155780601f106104ea57610100808354040283529160200191610515565b820191906000526020600020905b8154815290600101906020018083116104f857829003601f168201915b5050505050908060020154908060030160009054906101000a900473ffffffffffffffffffffffffffffffffffffffff16908060030160149054906101000a900460ff16905085565b60025481565b6001818154811061057457600080fd5b90600052602060002090600202016000915090508060000154908060010160009054906101000a900473ffffffffffffffffffffffffffffffffffffffff16908060010160149054906101000a900460ff16905083565b60075481565b600860009054906101000a900473ffffffffffffffffffffffffffffffffffffffff1681565b6201518060065402600554014210610644576040517f08c379a000000000000000000000000000000000000000000000000000000000815260040161063b90611c39565b60405180910390fd5b3373ffffffffffffffffffffffffffffffffffffffff168173ffffffffffffffffffffffffffffffffffffffff16146106b2576040517f08c379a00000000000000000000000000000000000000000000000000000000081526004016106a990611bf9565b60405180910390fd5b60025434146106f6576040517f08c379a00000000000000000000000000000000000000000000000000000000081526004016106ed90611b79565b60405180910390fd5b6106fe611117565b6040518060a001604052808681526020018581526020018481526020018373ffffffffffffffffffffffffffffffffffffffff1681526020016001151581525090506000819080600181540180825580915050600190039060005260206000209060040201600090919091909150600082015181600001908051906020019061078892919061115e565b5060208201518160010190805190602001906107a592919061115e565b506040820151816002015560608201518160030160006101000a81548173ffffffffffffffffffffffffffffffffffffffff021916908373ffffffffffffffffffffffffffffffffffffffff16021790555060808201518160030160146101000a81548160ff02191690831515021790555050507f06d1b12f5bd69b3324d93aa3b48faf821976e35c5e91686aa31ea31b1d01b21c60405160405180910390a15050505050565b600360009054906101000a900473ffffffffffffffffffffffffffffffffffffffff1681565b62015180600754026201518060065402600554010142106108c8576040517f08c379a00000000000000000000000000000000000000000000000000000000081526004016108bf90611c19565b60405180910390fd5b3373ffffffffffffffffffffffffffffffffffffffff168173ffffffffffffffffffffffffffffffffffffffff1614610936576040517f08c379a000000000000000000000000000000000000000000000000000000000815260040161092d90611bd9565b60405180910390fd5b61093e6111ec565b60405180606001604052808481526020018373ffffffffffffffffffffffffffffffffffffffff16815260200160011515815250905060018190806001815401808255809150506001900390600052602060002090600202016000909190919091506000820151816000015560208201518160010160006101000a81548173ffffffffffffffffffffffffffffffffffffffff021916908373ffffffffffffffffffffffffffffffffffffffff16021790555060408201518160010160146101000a81548160ff02191690831515021790555050507f4f87d78f21ae7fa6d2a1e4595abd14518a99e03593b3bef68d1c4543be43861b60405160405180910390a1505050565b600460009054906101000a900473ffffffffffffffffffffffffffffffffffffffff1681565b6201518060075402620151806006540260055401014210610ac0576040517f08c379a0000000000000000000000000000000000000000000000000000000008152600401610ab790611c19565b60405180910390fd5b6060600860009054906101000a900473ffffffffffffffffffffffffffffffffffffffff1673ffffffffffffffffffffffffffffffffffffffff1663bde5ce9e60006040518263ffffffff1660e01b8152600401610b1e9190611adb565b600060405180830381600087803b158015610b3857600080fd5b505af1158015610b4c573d6000803e3d6000fd5b505050506040513d6000823e3d601f19601f82011682018060405250810190610b759190611494565b905060005b600080549050811015610c7157818181518110610b9357fe5b602002602001015160008281548110610ba857fe5b90600052602060002090600402016000820151816000019080519060200190610bd292919061115e565b506020820151816001019080519060200190610bef92919061115e565b506040820151816002015560608201518160030160006101000a81548173ffffffffffffffffffffffffffffffffffffffff021916908373ffffffffffffffffffffffffffffffffffffffff16021790555060808201518160030160146101000a81548160ff0219169083151502179055509050508080600101915050610b7a565b5050565b60065481565b6201518060075402620151806006540260055401014210610cd1576040517f08c379a0000000000000000000000000000000000000000000000000000000008152600401610cc890611c19565b60405180910390fd5b60018281548110610cde57fe5b906000526020600020906002020160010160149054906101000a900460ff16610d3c576040517f08c379a0000000000000000000000000000000000000000000000000000000008152600401610d3390611b99565b60405180910390fd5b600460009054906101000a900473ffffffffffffffffffffffffffffffffffffffff1673ffffffffffffffffffffffffffffffffffffffff163373ffffffffffffffffffffffffffffffffffffffff1614610dcc576040517f08c379a0000000000000000000000000000000000000000000000000000000008152600401610dc390611bb9565b60405180910390fd5b80610ead5760008060018481548110610de157fe5b90600052602060002090600202016000015481548110610dfd57fe5b906000526020600020906004020160030160146101000a81548160ff02191690831515021790555060018281548110610e3257fe5b906000526020600020906002020160010160009054906101000a900473ffffffffffffffffffffffffffffffffffffffff1673ffffffffffffffffffffffffffffffffffffffff166108fc6002549081150290604051600060405180830381858888f19350505050158015610eab573d6000803e3d6000fd5b505b600060018381548110610ebc57fe5b906000526020600020906002020160010160146101000a81548160ff0219169083151502179055505050565b620151806007540262015180600654026005540101421015610f3f576040517f08c379a0000000000000000000000000000000000000000000000000000000008152600401610f3690611c19565b60405180910390fd5b600080805490503481610f4e57fe5b0490506000805b8381108015610f68575060008054905082105b1561103d5760008281548110610f7a57fe5b906000526020600020906004020160030160149054906101000a900460ff16156110305760008281548110610fab57fe5b906000526020600020906004020160030160009054906101000a900473ffffffffffffffffffffffffffffffffffffffff1673ffffffffffffffffffffffffffffffffffffffff166108fc60025485019081150290604051600060405180830381858888f19350505050158015611026573d6000803e3d6000fd5b5080806001019150505b8180600101925050610f55565b505b600080549050811015611112576000818154811061105957fe5b906000526020600020906004020160030160149054906101000a900460ff1615611105576000818154811061108a57fe5b906000526020600020906004020160030160009054906101000a900473ffffffffffffffffffffffffffffffffffffffff1673ffffffffffffffffffffffffffffffffffffffff166108fc6002549081150290604051600060405180830381858888f19350505050158015611103573d6000803e3d6000fd5b505b808060010191505061103f565b505050565b6040518060a00160405280606081526020016060815260200160008152602001600073ffffffffffffffffffffffffffffffffffffffff1681526020016000151581525090565b828054600181600116156101000203166002900490600052602060002090601f01602090048101928261119457600085556111db565b82601f106111ad57805160ff19168380011785556111db565b828001600101855582156111db579182015b828111156111da5782518255916020019190600101906111bf565b5b5090506111e89190611225565b5090565b604051806060016040528060008152602001600073ffffffffffffffffffffffffffffffffffffffff1681526020016000151581525090565b5b8082111561123e576000816000905550600101611226565b5090565b60008135905061125181611f2a565b92915050565b60008151905061126681611f2a565b92915050565b600082601f83011261127d57600080fd5b815161129061128b82611cdc565b611cab565b9150818183526020840193506020810190508360005b838110156112d657815186016112bc88826113b2565b8452602084019350602083019250506001810190506112a6565b5050505092915050565b6000813590506112ef81611f41565b92915050565b60008151905061130481611f41565b92915050565b600082601f83011261131b57600080fd5b813561132e61132982611d08565b611cab565b9150808252602083016020830185838301111561134a57600080fd5b611355838284611e6d565b50505092915050565b600082601f83011261136f57600080fd5b815161138261137d82611d08565b611cab565b9150808252602083016020830185838301111561139e57600080fd5b6113a9838284611e7c565b50505092915050565b600060a082840312156113c457600080fd5b6113ce60a0611cab565b9050600082015167ffffffffffffffff8111156113ea57600080fd5b6113f68482850161135e565b600083015250602082015167ffffffffffffffff81111561141657600080fd5b6114228482850161135e565b60208301525060406114368482850161147f565b604083015250606061144a84828501611257565b606083015250608061145e848285016112f5565b60808301525092915050565b60008135905061147981611f58565b92915050565b60008151905061148e81611f58565b92915050565b6000602082840312156114a657600080fd5b600082015167ffffffffffffffff8111156114c057600080fd5b6114cc8482850161126c565b91505092915050565b600080600080608085870312156114eb57600080fd5b600085013567ffffffffffffffff81111561150557600080fd5b6115118782880161130a565b945050602085013567ffffffffffffffff81111561152e57600080fd5b61153a8782880161130a565b935050604061154b8782880161146a565b925050606061155c87828801611242565b91505092959194509250565b60006020828403121561157a57600080fd5b60006115888482850161146a565b91505092915050565b600080604083850312156115a457600080fd5b60006115b28582860161146a565b92505060206115c385828601611242565b9150509250929050565b600080604083850312156115e057600080fd5b60006115ee8582860161146a565b92505060206115ff858286016112e0565b9150509250929050565b60006116158383611a0b565b905092915050565b61162681611e01565b82525050565b61163581611e01565b82525050565b61164481611def565b82525050565b600061165582611d62565b61165f8185611d85565b93508360208202850161167185611d38565b8060005b858110156116ac5784840389528161168d8582611609565b945061169883611d78565b925060208a01995050600181019050611675565b50829750879550505050505092915050565b6116c781611e13565b82525050565b6116d681611e13565b82525050565b6116e581611e49565b82525050565b60006116f682611d6d565b6117008185611da7565b9350611710818560208601611e7c565b61171981611eff565b840191505092915050565b6000815460018116600081146117415760018114611767576117ab565b607f60028304166117528187611d96565b955060ff1983168652602086019350506117ab565b600282046117758187611d96565b955061178085611d4d565b60005b828110156117a257815481890152600182019150602081019050611783565b80880195505050505b505092915050565b60006117c0602e83611da7565b91507f5468652073656e642076616c756520697320646966666572656e74207468616e60008301527f20746865207265717569726564210000000000000000000000000000000000006020830152604082019050919050565b6000611826601f83611da7565b91507f54686973206469737075746520697320616c726561647920636c6f73656421006000830152602082019050919050565b6000611866602583611da7565b91507f4f6e6c7920746865206b65657065722063616e207265736f6c7665204469737060008301527f75746573210000000000000000000000000000000000000000000000000000006020830152604082019050919050565b60006118cc602a83611da7565b91507f4f70656e427920616e642073656e646572206d7573742062652074686520736160008301527f6d652061646472657373000000000000000000000000000000000000000000006020830152604082019050919050565b6000611932603283611da7565b91507f53747564656e744164647265737320616e642073656e646572206d757374206260008301527f65207468652073616d65206164647265737300000000000000000000000000006020830152604082019050919050565b6000611998601783611da7565b91507f4469737075746520706572696f64206973206f766572210000000000000000006000830152602082019050919050565b60006119d8601983611da7565b91507f436c61736174696f6e20706572696f64206973206f76657221000000000000006000830152602082019050919050565b600060a0830160008084018583036000870152611a288382611724565b925050600184018583036020870152611a418382611724565b92505060028401549050611a5481611ec9565b611a616040870182611aa2565b5060038401549050611a7281611eaf565b611a7f606087018261161d565b50611a8981611ee3565b611a9660808701826116be565b50819250505092915050565b611aab81611e3f565b82525050565b611aba81611e3f565b82525050565b6000602082019050611ad5600083018461163b565b92915050565b60006020820190508181036000830152611af5818461164a565b905092915050565b6000602082019050611b1260008301846116dc565b92915050565b600060a0820190508181036000830152611b3281886116eb565b90508181036020830152611b4681876116eb565b9050611b556040830186611ab1565b611b62606083018561162c565b611b6f60808301846116cd565b9695505050505050565b60006020820190508181036000830152611b92816117b3565b9050919050565b60006020820190508181036000830152611bb281611819565b9050919050565b60006020820190508181036000830152611bd281611859565b9050919050565b60006020820190508181036000830152611bf2816118bf565b9050919050565b60006020820190508181036000830152611c1281611925565b9050919050565b60006020820190508181036000830152611c328161198b565b9050919050565b60006020820190508181036000830152611c52816119cb565b9050919050565b6000602082019050611c6e6000830184611ab1565b92915050565b6000606082019050611c896000830186611ab1565b611c96602083018561162c565b611ca360408301846116cd565b949350505050565b6000604051905081810181811067ffffffffffffffff82111715611cd257611cd1611efd565b5b8060405250919050565b600067ffffffffffffffff821115611cf757611cf6611efd565b5b602082029050602081019050919050565b600067ffffffffffffffff821115611d2357611d22611efd565b5b601f19601f8301169050602081019050919050565b60008190508160005260206000209050919050565b60008190508160005260206000209050919050565b600081549050919050565b600081519050919050565b6000600482019050919050565b600082825260208201905092915050565b600082825260208201905092915050565b600082825260208201905092915050565b600073ffffffffffffffffffffffffffffffffffffffff82169050919050565b600060ff82169050919050565b6000819050919050565b6000611dfa82611e1f565b9050919050565b6000611e0c82611e1f565b9050919050565b60008115159050919050565b600073ffffffffffffffffffffffffffffffffffffffff82169050919050565b6000819050919050565b6000611e5482611e5b565b9050919050565b6000611e6682611e1f565b9050919050565b82818337600083830152505050565b60005b83811015611e9a578082015181840152602081019050611e7f565b83811115611ea9576000848401525b50505050565b6000611ec2611ebd83611f10565b611db8565b9050919050565b6000611edc611ed783611f10565b611de5565b9050919050565b6000611ef6611ef183611f1d565b611dd8565b9050919050565bfe5b6000601f19601f8301169050919050565b60008160001c9050919050565b60008160a01c9050919050565b611f3381611e01565b8114611f3e57600080fd5b50565b611f4a81611e13565b8114611f5557600080fd5b50565b611f6181611e3f565b8114611f6c57600080fd5b5056fea264697066735822122068a8735e3dd6b09ed0526529b45c6c306a858682cbc4507c333562211ccdf27464736f6c63430007040033608060405234801561001057600080fd5b5061079e806100206000396000f3fe608060405234801561001057600080fd5b506004361061002b5760003560e01c8063bde5ce9e14610030575b600080fd5b61004a600480360381019061004591906103d5565b610060565b6040516100579190610582565b60405180910390f35b6060610072826000600185510361007a565b819050919050565b60008290506000829050808214156100935750506101ca565b61009b6101cf565b856002868603816100a857fe5b058601815181106100b557fe5b602002602001015190505b81831361019e575b80604001518684815181106100d957fe5b60200260200101516040015110156100f85782806001019350506100c8565b5b85828151811061010557fe5b6020026020010151604001518160400151101561012a578180600190039250506100f9565b8183136101995785828151811061013d57fe5b602002602001015186848151811061015157fe5b602002602001015187858151811061016557fe5b6020026020010188858151811061017857fe5b60200260200101829052829052505082806001019350508180600190039250505b6100c0565b818512156101b2576101b186868461007a565b5b838312156101c6576101c586848661007a565b5b5050505b505050565b6040518060a00160405280606081526020016060815260200160008152602001600073ffffffffffffffffffffffffffffffffffffffff1681526020016000151581525090565b60008135905061022581610723565b92915050565b600082601f83011261023c57600080fd5b813561024f61024a826105d5565b6105a4565b9150818183526020840193506020810190508360005b83811015610295578135860161027b8882610308565b845260208401935060208301925050600181019050610265565b5050505092915050565b6000813590506102ae8161073a565b92915050565b600082601f8301126102c557600080fd5b81356102d86102d382610601565b6105a4565b915080825260208301602083018583830111156102f457600080fd5b6102ff8382846106ce565b50505092915050565b600060a0828403121561031a57600080fd5b61032460a06105a4565b9050600082013567ffffffffffffffff81111561034057600080fd5b61034c848285016102b4565b600083015250602082013567ffffffffffffffff81111561036c57600080fd5b610378848285016102b4565b602083015250604061038c848285016103c0565b60408301525060606103a084828501610216565b60608301525060806103b48482850161029f565b60808301525092915050565b6000813590506103cf81610751565b92915050565b6000602082840312156103e757600080fd5b600082013567ffffffffffffffff81111561040157600080fd5b61040d8482850161022b565b91505092915050565b600061042283836104f6565b905092915050565b61043381610686565b82525050565b600061044482610641565b61044e8185610664565b93508360208202850161046085610631565b8060005b8581101561049c578484038952815161047d8582610416565b945061048883610657565b925060208a01995050600181019050610464565b50829750879550505050505092915050565b6104b781610698565b82525050565b60006104c88261064c565b6104d28185610675565b93506104e28185602086016106dd565b6104eb81610712565b840191505092915050565b600060a083016000830151848203600086015261051382826104bd565b9150506020830151848203602086015261052d82826104bd565b91505060408301516105426040860182610573565b506060830151610555606086018261042a565b50608083015161056860808601826104ae565b508091505092915050565b61057c816106c4565b82525050565b6000602082019050818103600083015261059c8184610439565b905092915050565b6000604051905081810181811067ffffffffffffffff821117156105cb576105ca610710565b5b8060405250919050565b600067ffffffffffffffff8211156105f0576105ef610710565b5b602082029050602081019050919050565b600067ffffffffffffffff82111561061c5761061b610710565b5b601f19601f8301169050602081019050919050565b6000819050602082019050919050565b600081519050919050565b600081519050919050565b6000602082019050919050565b600082825260208201905092915050565b600082825260208201905092915050565b6000610691826106a4565b9050919050565b60008115159050919050565b600073ffffffffffffffffffffffffffffffffffffffff82169050919050565b6000819050919050565b82818337600083830152505050565b60005b838110156106fb5780820151818401526020810190506106e0565b8381111561070a576000848401525b50505050565bfe5b6000601f19601f8301169050919050565b61072c81610686565b811461073757600080fd5b50565b61074381610698565b811461074e57600080fd5b50565b61075a816106c4565b811461076557600080fd5b5056fea2646970667358221220853baa252a06ffc1578e89ebc18b63bc18eefaa24344696304b50bf95895b3b564736f6c63430007040033",
  "immutableReferences": {},
  "source": "// SPDX-License-Identifier: GPL-3.0\npragma solidity >=0.7.4 <0.9.0;\npragma experimental ABIEncoderV2;\n\nimport \"./DataTypes.sol\";\nimport \"./IClasify.sol\";\n\ncontract SortedClasificator is IClasify{\n    \n    function createClasation(DataTypes.Candidate[] memory data) external override returns(DataTypes.Candidate[] memory) {\n       quickSort(data, int(0), int(data.length - 1));\n       return data;\n    }\n    \n    function quickSort(DataTypes.Candidate[] memory arr, int left, int right) internal{\n        int i = left;\n        int j = right;\n        if(i==j) return;\n        DataTypes.Candidate memory pivot = arr[uint(left + (right - left) / 2)];\n        while (i <= j) {\n            while (arr[uint(i)].Grade < pivot.Grade) i++;\n            while (pivot.Grade < arr[uint(j)].Grade) j--;\n            if (i <= j) {\n                (arr[uint(i)], arr[uint(j)]) = (arr[uint(j)], arr[uint(i)]);\n                i++;\n                j--;\n            }\n        }\n        if (left < j)\n            quickSort(arr, left, j);\n        if (i < right)\n            quickSort(arr, i, right);\n    }\n}\n\ncontract StipendCenter {\n    \n    DataTypes.Candidate[] public candidates;\n    DataTypes.Dispute[] public disputes;\n    uint public stake;\n    address public owner;\n    address public keeper;\n    uint public startDate;\n    uint public clasationPeriod;\n    uint public disputePeriod;\n    IClasify public clasificator;\n    \n    constructor(uint _stake, address _keeper, uint _clasationPeriod, uint _disputePeriod) {\n        owner = msg.sender;\n        stake = _stake;\n        keeper = _keeper;\n        startDate = block.timestamp;\n        clasationPeriod = _clasationPeriod;\n        disputePeriod = _disputePeriod;\n        \n        //hardcoded\n        clasificator = new SortedClasificator();\n    }\n    \n    modifier inClastaionState() {\n        require(block.timestamp < startDate + clasationPeriod * 1 days, \"Clasation period is over!\");\n        _;\n    }\n    \n    modifier inDesputeState(){\n        require(block.timestamp < startDate + clasationPeriod * 1 days + disputePeriod * 1 days, \"Dispute period is over!\");\n        _;\n    }\n    \n    modifier inFinalState(){\n        require(block.timestamp >= startDate + clasationPeriod  * 1 days+ disputePeriod * 1 days, \"Dispute period is over!\");\n        _;\n    }\n    \n    \n    function createClasation() external inDesputeState {\n        DataTypes.Candidate[] memory x = clasificator.createClasation(candidates);\n\n        for(uint i = 0; i < candidates.length; i++){\n            candidates[i] = x[i];\n        }\n        \n    }\n    \n    function receiveStipends(uint nStipends) external payable inFinalState{ //TODO edit return stake\n        uint singleTransfer = msg.value / candidates.length;\n        uint i = 0;\n        for(uint j = 0; j < nStipends && i <  candidates.length; i++){\n            if(candidates[i].Valid){\n                candidates[i].Address.transfer(singleTransfer + stake);\n                j++;\n            }\n        }\n        \n        while(i <  candidates.length){\n            if(candidates[i].Valid){\n                candidates[i].Address.transfer(stake);\n            }\n            i++;\n        }\n    }\n\n    event NewCandidate();\n\n    function addNewCandidate(string memory name, string memory faculcyNumber, uint grade, address payable studentAddress) external payable inClastaionState{\n        require(studentAddress == msg.sender, \"StudentAddress and sender must be the same address\");\n        require(msg.value == stake, \"The send value is different than the required!\");\n        DataTypes.Candidate memory newCandidate = DataTypes.Candidate(name, faculcyNumber, grade, studentAddress, true);\n        candidates.push(newCandidate);\n        emit NewCandidate();\n    }\n\n    function getCandidatesNum() public view returns (uint) {\n        return candidates.length;\n    }\n    \n    event NewDispute();\n    function opendDispute(uint id, address payable openBy) external inDesputeState{\n        require(openBy == msg.sender, \"OpenBy and sender must be the same address\");\n        DataTypes.Dispute memory newDispute = DataTypes.Dispute(id, openBy, true);\n        disputes.push(newDispute);\n        emit NewDispute();\n    }\n    \n    function getDisputeNum() public view returns (uint) {\n        return disputes.length;\n    }\n    \n    function resolveDisput(uint disputeId, bool isValid) external inDesputeState{\n        require(disputes[disputeId].Open, \"This dispute is already closed!\");\n        require(msg.sender == keeper, \"Only the keeper can resolve Disputes!\");\n        if(!isValid){\n            candidates[disputes[disputeId].CandidateId].Valid = false;\n            disputes[disputeId].OpenedBy.transfer(stake);\n        }\n        disputes[disputeId].Open = false;\n    }\n}\n\n\n\n\n",
  "sourcePath": "/home/ioan681/Desktop/Projects/fmi-blockchain/contracts/StipendCenter.sol",
  "compiler": {
    "name": "solc",
    "version": "0.7.4+commit.3f05b770.Emscripten.clang"
  },
  "schemaVersion": "3.3.3",
  "updatedAt": "2021-02-03T20:52:33.740Z",
  "networkType": "ethereum",
  "devdoc": {
    "kind": "dev",
    "methods": {},
    "version": 1
  },
  "userdoc": {
    "kind": "user",
    "methods": {},
    "version": 1
  }
}