{
  "contractName": "StipendCenter",
  "abi": [
    {
      "inputs": [
        {
          "internalType": "uint256",
          "name": "_stake",
          "type": "uint256"
        },
        {
          "internalType": "address",
          "name": "_keeper",
          "type": "address"
        },
        {
          "internalType": "uint256",
          "name": "_clasationPeriod",
          "type": "uint256"
        },
        {
          "internalType": "uint256",
          "name": "_disputePeriod",
          "type": "uint256"
        }
      ],
      "stateMutability": "nonpayable",
      "type": "constructor"
    },
    {
      "anonymous": false,
      "inputs": [],
      "name": "NewCandidate",
      "type": "event"
    },
    {
      "anonymous": false,
      "inputs": [],
      "name": "NewDispute",
      "type": "event"
    },
    {
      "inputs": [
        {
          "internalType": "uint256",
          "name": "",
          "type": "uint256"
        }
      ],
      "name": "candidates",
      "outputs": [
        {
          "internalType": "string",
          "name": "Name",
          "type": "string"
        },
        {
          "internalType": "string",
          "name": "FacultyNumber",
          "type": "string"
        },
        {
          "internalType": "uint256",
          "name": "Grade",
          "type": "uint256"
        },
        {
          "internalType": "address payable",
          "name": "Address",
          "type": "address"
        },
        {
          "internalType": "bool",
          "name": "Valid",
          "type": "bool"
        }
      ],
      "stateMutability": "view",
      "type": "function",
      "constant": true
    },
    {
      "inputs": [],
      "name": "clasationPeriod",
      "outputs": [
        {
          "internalType": "uint256",
          "name": "",
          "type": "uint256"
        }
      ],
      "stateMutability": "view",
      "type": "function",
      "constant": true
    },
    {
      "inputs": [],
      "name": "clasificator",
      "outputs": [
        {
          "internalType": "contract IClasify",
          "name": "",
          "type": "address"
        }
      ],
      "stateMutability": "view",
      "type": "function",
      "constant": true
    },
    {
      "inputs": [],
      "name": "disputePeriod",
      "outputs": [
        {
          "internalType": "uint256",
          "name": "",
          "type": "uint256"
        }
      ],
      "stateMutability": "view",
      "type": "function",
      "constant": true
    },
    {
      "inputs": [
        {
          "internalType": "uint256",
          "name": "",
          "type": "uint256"
        }
      ],
      "name": "disputes",
      "outputs": [
        {
          "internalType": "uint256",
          "name": "CandidateId",
          "type": "uint256"
        },
        {
          "internalType": "address payable",
          "name": "OpenedBy",
          "type": "address"
        },
        {
          "internalType": "bool",
          "name": "Open",
          "type": "bool"
        }
      ],
      "stateMutability": "view",
      "type": "function",
      "constant": true
    },
    {
      "inputs": [],
      "name": "keeper",
      "outputs": [
        {
          "internalType": "address",
          "name": "",
          "type": "address"
        }
      ],
      "stateMutability": "view",
      "type": "function",
      "constant": true
    },
    {
      "inputs": [],
      "name": "owner",
      "outputs": [
        {
          "internalType": "address",
          "name": "",
          "type": "address"
        }
      ],
      "stateMutability": "view",
      "type": "function",
      "constant": true
    },
    {
      "inputs": [],
      "name": "stake",
      "outputs": [
        {
          "internalType": "uint256",
          "name": "",
          "type": "uint256"
        }
      ],
      "stateMutability": "view",
      "type": "function",
      "constant": true
    },
    {
      "inputs": [],
      "name": "startDate",
      "outputs": [
        {
          "internalType": "uint256",
          "name": "",
          "type": "uint256"
        }
      ],
      "stateMutability": "view",
      "type": "function",
      "constant": true
    },
    {
      "inputs": [],
      "name": "createClasation",
      "outputs": [],
      "stateMutability": "nonpayable",
      "type": "function"
    },
    {
      "inputs": [
        {
          "internalType": "uint256",
          "name": "nStipends",
          "type": "uint256"
        }
      ],
      "name": "receiveStipends",
      "outputs": [],
      "stateMutability": "payable",
      "type": "function",
      "payable": true
    },
    {
      "inputs": [
        {
          "internalType": "string",
          "name": "name",
          "type": "string"
        },
        {
          "internalType": "string",
          "name": "facultyNumber",
          "type": "string"
        },
        {
          "internalType": "uint256",
          "name": "grade",
          "type": "uint256"
        },
        {
          "internalType": "address payable",
          "name": "studentAddress",
          "type": "address"
        }
      ],
      "name": "addNewCandidate",
      "outputs": [],
      "stateMutability": "payable",
      "type": "function",
      "payable": true
    },
    {
      "inputs": [],
      "name": "getCandidatesNum",
      "outputs": [
        {
          "internalType": "uint256",
          "name": "",
          "type": "uint256"
        }
      ],
      "stateMutability": "view",
      "type": "function",
      "constant": true
    },
    {
      "inputs": [
        {
          "internalType": "uint256",
          "name": "id",
          "type": "uint256"
        },
        {
          "internalType": "address payable",
          "name": "openBy",
          "type": "address"
        }
      ],
      "name": "opendDispute",
      "outputs": [],
      "stateMutability": "nonpayable",
      "type": "function"
    },
    {
      "inputs": [],
      "name": "getDisputeNum",
      "outputs": [
        {
          "internalType": "uint256",
          "name": "",
          "type": "uint256"
        }
      ],
      "stateMutability": "view",
      "type": "function",
      "constant": true
    },
    {
      "inputs": [
        {
          "internalType": "uint256",
          "name": "disputeId",
          "type": "uint256"
        },
        {
          "internalType": "bool",
          "name": "isValid",
          "type": "bool"
        }
      ],
      "name": "resolveDisput",
      "outputs": [],
      "stateMutability": "nonpayable",
      "type": "function"
    }
  ],
  "bytecode": "0x60806040523480156200001157600080fd5b506040516200277c3803806200277c833981810160405281019062000037919062000187565b33600360006101000a81548173ffffffffffffffffffffffffffffffffffffffff021916908373ffffffffffffffffffffffffffffffffffffffff1602179055508360028190555082600460006101000a81548173ffffffffffffffffffffffffffffffffffffffff021916908373ffffffffffffffffffffffffffffffffffffffff160217905550426005819055508160068190555080600781905550604051620000e3906200014b565b604051809103906000f08015801562000100573d6000803e3d6000fd5b50600860006101000a81548173ffffffffffffffffffffffffffffffffffffffff021916908373ffffffffffffffffffffffffffffffffffffffff1602179055505050505062000265565b6107be8062001fbe83390190565b6000815190506200016a8162000231565b92915050565b60008151905062000181816200024b565b92915050565b600080600080608085870312156200019e57600080fd5b6000620001ae8782880162000170565b9450506020620001c18782880162000159565b9350506040620001d48782880162000170565b9250506060620001e78782880162000170565b91505092959194509250565b6000620002008262000207565b9050919050565b600073ffffffffffffffffffffffffffffffffffffffff82169050919050565b6000819050919050565b6200023c81620001f3565b81146200024857600080fd5b50565b620002568162000227565b81146200026257600080fd5b50565b611d4980620002756000396000f3fe6080604052600436106100f35760003560e01c806368fd5ff21161008a578063d50ead6211610059578063d50ead6214610315578063dbfcb8cd1461032c578063dd28c39914610357578063ed38b52b14610380576100f3565b806368fd5ff21461027a5780638da5cb5b1461029657806397880016146102c1578063aced1661146102ea576100f3565b80633a4b66f1116100c65780633a4b66f1146101ba578063564a565d146101e55780635bf31d4d146102245780635e3adb431461024f576100f3565b80630102aab8146100f85780630b97bc8614610123578063219474181461014e5780633477ee2e14610179575b600080fd5b34801561010457600080fd5b5061010d61039c565b60405161011a91906119fd565b60405180910390f35b34801561012f57600080fd5b506101386103a9565b60405161014591906119fd565b60405180910390f35b34801561015a57600080fd5b506101636103af565b60405161017091906119fd565b60405180910390f35b34801561018557600080fd5b506101a0600480360381019061019b91906113cc565b6103bb565b6040516101b19594939291906118fc565b60405180910390f35b3480156101c657600080fd5b506101cf61055e565b6040516101dc91906119fd565b60405180910390f35b3480156101f157600080fd5b5061020c600480360381019061020791906113cc565b610564565b60405161021b93929190611a18565b60405180910390f35b34801561023057600080fd5b506102396105cb565b60405161024691906119fd565b60405180910390f35b34801561025b57600080fd5b506102646105d1565b60405161027191906118e1565b60405180910390f35b610294600480360381019061028f9190611339565b6105f7565b005b3480156102a257600080fd5b506102ab6107ff565b6040516102b891906118a4565b60405180910390f35b3480156102cd57600080fd5b506102e860048036038101906102e391906113f5565b610825565b005b3480156102f657600080fd5b506102ff6109a1565b60405161030c91906118a4565b60405180910390f35b34801561032157600080fd5b5061032a6109c7565b005b34801561033857600080fd5b50610341610b86565b60405161034e91906119fd565b60405180910390f35b34801561036357600080fd5b5061037e60048036038101906103799190611431565b610b8c565b005b61039a600480360381019061039591906113cc565b610da3565b005b6000600180549050905090565b60055481565b60008080549050905090565b600081815481106103cb57600080fd5b9060005260206000209060040201600091509050806000018054600181600116156101000203166002900480601f0160208091040260200160405190810160405280929190818152602001828054600181600116156101000203166002900480156104775780601f1061044c57610100808354040283529160200191610477565b820191906000526020600020905b81548152906001019060200180831161045a57829003601f168201915b505050505090806001018054600181600116156101000203166002900480601f0160208091040260200160405190810160405280929190818152602001828054600181600116156101000203166002900480156105155780601f106104ea57610100808354040283529160200191610515565b820191906000526020600020905b8154815290600101906020018083116104f857829003601f168201915b5050505050908060020154908060030160009054906101000a900473ffffffffffffffffffffffffffffffffffffffff16908060030160149054906101000a900460ff16905085565b60025481565b6001818154811061057457600080fd5b90600052602060002090600202016000915090508060000154908060010160009054906101000a900473ffffffffffffffffffffffffffffffffffffffff16908060010160149054906101000a900460ff16905083565b60075481565b600860009054906101000a900473ffffffffffffffffffffffffffffffffffffffff1681565b3373ffffffffffffffffffffffffffffffffffffffff168173ffffffffffffffffffffffffffffffffffffffff1614610665576040517f08c379a000000000000000000000000000000000000000000000000000000000815260040161065c906119dd565b60405180910390fd5b60025434146106a9576040517f08c379a00000000000000000000000000000000000000000000000000000000081526004016106a09061195d565b60405180910390fd5b6106b1610f7b565b6040518060a001604052808681526020018581526020018481526020018373ffffffffffffffffffffffffffffffffffffffff1681526020016001151581525090506000819080600181540180825580915050600190039060005260206000209060040201600090919091909150600082015181600001908051906020019061073b929190610fc2565b506020820151816001019080519060200190610758929190610fc2565b506040820151816002015560608201518160030160006101000a81548173ffffffffffffffffffffffffffffffffffffffff021916908373ffffffffffffffffffffffffffffffffffffffff16021790555060808201518160030160146101000a81548160ff02191690831515021790555050507f06d1b12f5bd69b3324d93aa3b48faf821976e35c5e91686aa31ea31b1d01b21c60405160405180910390a15050505050565b600360009054906101000a900473ffffffffffffffffffffffffffffffffffffffff1681565b3373ffffffffffffffffffffffffffffffffffffffff168173ffffffffffffffffffffffffffffffffffffffff1614610893576040517f08c379a000000000000000000000000000000000000000000000000000000000815260040161088a906119bd565b60405180910390fd5b61089b611050565b60405180606001604052808481526020018373ffffffffffffffffffffffffffffffffffffffff16815260200160011515815250905060018190806001815401808255809150506001900390600052602060002090600202016000909190919091506000820151816000015560208201518160010160006101000a81548173ffffffffffffffffffffffffffffffffffffffff021916908373ffffffffffffffffffffffffffffffffffffffff16021790555060408201518160010160146101000a81548160ff02191690831515021790555050507f4f87d78f21ae7fa6d2a1e4595abd14518a99e03593b3bef68d1c4543be43861b60405160405180910390a1505050565b600460009054906101000a900473ffffffffffffffffffffffffffffffffffffffff1681565b6060600860009054906101000a900473ffffffffffffffffffffffffffffffffffffffff1673ffffffffffffffffffffffffffffffffffffffff1663bde5ce9e60006040518263ffffffff1660e01b8152600401610a2591906118bf565b600060405180830381600087803b158015610a3f57600080fd5b505af1158015610a53573d6000803e3d6000fd5b505050506040513d6000823e3d601f19601f82011682018060405250810190610a7c91906112f8565b905060005b600080549050811015610b825781816001600080549050030381518110610aa457fe5b602002602001015160008281548110610ab957fe5b90600052602060002090600402016000820151816000019080519060200190610ae3929190610fc2565b506020820151816001019080519060200190610b00929190610fc2565b506040820151816002015560608201518160030160006101000a81548173ffffffffffffffffffffffffffffffffffffffff021916908373ffffffffffffffffffffffffffffffffffffffff16021790555060808201518160030160146101000a81548160ff0219169083151502179055509050508080600101915050610a81565b5050565b60065481565b60018281548110610b9957fe5b906000526020600020906002020160010160149054906101000a900460ff16610bf7576040517f08c379a0000000000000000000000000000000000000000000000000000000008152600401610bee9061197d565b60405180910390fd5b600460009054906101000a900473ffffffffffffffffffffffffffffffffffffffff1673ffffffffffffffffffffffffffffffffffffffff163373ffffffffffffffffffffffffffffffffffffffff1614610c87576040517f08c379a0000000000000000000000000000000000000000000000000000000008152600401610c7e9061199d565b60405180910390fd5b80610d685760008060018481548110610c9c57fe5b90600052602060002090600202016000015481548110610cb857fe5b906000526020600020906004020160030160146101000a81548160ff02191690831515021790555060018281548110610ced57fe5b906000526020600020906002020160010160009054906101000a900473ffffffffffffffffffffffffffffffffffffffff1673ffffffffffffffffffffffffffffffffffffffff166108fc6002549081150290604051600060405180830381858888f19350505050158015610d66573d6000803e3d6000fd5b505b600060018381548110610d7757fe5b906000526020600020906002020160010160146101000a81548160ff0219169083151502179055505050565b600080805490503481610db257fe5b0490506000805b8381108015610dcc575060008054905082105b15610ea15760008281548110610dde57fe5b906000526020600020906004020160030160149054906101000a900460ff1615610e945760008281548110610e0f57fe5b906000526020600020906004020160030160009054906101000a900473ffffffffffffffffffffffffffffffffffffffff1673ffffffffffffffffffffffffffffffffffffffff166108fc60025485019081150290604051600060405180830381858888f19350505050158015610e8a573d6000803e3d6000fd5b5080806001019150505b8180600101925050610db9565b505b600080549050811015610f765760008181548110610ebd57fe5b906000526020600020906004020160030160149054906101000a900460ff1615610f695760008181548110610eee57fe5b906000526020600020906004020160030160009054906101000a900473ffffffffffffffffffffffffffffffffffffffff1673ffffffffffffffffffffffffffffffffffffffff166108fc6002549081150290604051600060405180830381858888f19350505050158015610f67573d6000803e3d6000fd5b505b8080600101915050610ea3565b505050565b6040518060a00160405280606081526020016060815260200160008152602001600073ffffffffffffffffffffffffffffffffffffffff1681526020016000151581525090565b828054600181600116156101000203166002900490600052602060002090601f016020900481019282610ff8576000855561103f565b82601f1061101157805160ff191683800117855561103f565b8280016001018555821561103f579182015b8281111561103e578251825591602001919060010190611023565b5b50905061104c9190611089565b5090565b604051806060016040528060008152602001600073ffffffffffffffffffffffffffffffffffffffff1681526020016000151581525090565b5b808211156110a257600081600090555060010161108a565b5090565b6000813590506110b581611cce565b92915050565b6000815190506110ca81611cce565b92915050565b600082601f8301126110e157600080fd5b81516110f46110ef82611a80565b611a4f565b9150818183526020840193506020810190508360005b8381101561113a57815186016111208882611216565b84526020840193506020830192505060018101905061110a565b5050505092915050565b60008135905061115381611ce5565b92915050565b60008151905061116881611ce5565b92915050565b600082601f83011261117f57600080fd5b813561119261118d82611aac565b611a4f565b915080825260208301602083018583830111156111ae57600080fd5b6111b9838284611c11565b50505092915050565b600082601f8301126111d357600080fd5b81516111e66111e182611aac565b611a4f565b9150808252602083016020830185838301111561120257600080fd5b61120d838284611c20565b50505092915050565b600060a0828403121561122857600080fd5b61123260a0611a4f565b9050600082015167ffffffffffffffff81111561124e57600080fd5b61125a848285016111c2565b600083015250602082015167ffffffffffffffff81111561127a57600080fd5b611286848285016111c2565b602083015250604061129a848285016112e3565b60408301525060606112ae848285016110bb565b60608301525060806112c284828501611159565b60808301525092915050565b6000813590506112dd81611cfc565b92915050565b6000815190506112f281611cfc565b92915050565b60006020828403121561130a57600080fd5b600082015167ffffffffffffffff81111561132457600080fd5b611330848285016110d0565b91505092915050565b6000806000806080858703121561134f57600080fd5b600085013567ffffffffffffffff81111561136957600080fd5b6113758782880161116e565b945050602085013567ffffffffffffffff81111561139257600080fd5b61139e8782880161116e565b93505060406113af878288016112ce565b92505060606113c0878288016110a6565b91505092959194509250565b6000602082840312156113de57600080fd5b60006113ec848285016112ce565b91505092915050565b6000806040838503121561140857600080fd5b6000611416858286016112ce565b9250506020611427858286016110a6565b9150509250929050565b6000806040838503121561144457600080fd5b6000611452858286016112ce565b925050602061146385828601611144565b9150509250929050565b600061147983836117ef565b905092915050565b61148a81611ba5565b82525050565b61149981611ba5565b82525050565b6114a881611b93565b82525050565b60006114b982611b06565b6114c38185611b29565b9350836020820285016114d585611adc565b8060005b85811015611510578484038952816114f1858261146d565b94506114fc83611b1c565b925060208a019950506001810190506114d9565b50829750879550505050505092915050565b61152b81611bb7565b82525050565b61153a81611bb7565b82525050565b61154981611bed565b82525050565b600061155a82611b11565b6115648185611b4b565b9350611574818560208601611c20565b61157d81611ca3565b840191505092915050565b6000815460018116600081146115a557600181146115cb5761160f565b607f60028304166115b68187611b3a565b955060ff19831686526020860193505061160f565b600282046115d98187611b3a565b95506115e485611af1565b60005b82811015611606578154818901526001820191506020810190506115e7565b80880195505050505b505092915050565b6000611624602e83611b4b565b91507f5468652073656e642076616c756520697320646966666572656e74207468616e60008301527f20746865207265717569726564210000000000000000000000000000000000006020830152604082019050919050565b600061168a601f83611b4b565b91507f54686973206469737075746520697320616c726561647920636c6f73656421006000830152602082019050919050565b60006116ca602583611b4b565b91507f4f6e6c7920746865206b65657065722063616e207265736f6c7665204469737060008301527f75746573210000000000000000000000000000000000000000000000000000006020830152604082019050919050565b6000611730602a83611b4b565b91507f4f70656e427920616e642073656e646572206d7573742062652074686520736160008301527f6d652061646472657373000000000000000000000000000000000000000000006020830152604082019050919050565b6000611796603283611b4b565b91507f53747564656e744164647265737320616e642073656e646572206d757374206260008301527f65207468652073616d65206164647265737300000000000000000000000000006020830152604082019050919050565b600060a083016000808401858303600087015261180c8382611588565b9250506001840185830360208701526118258382611588565b9250506002840154905061183881611c6d565b6118456040870182611886565b506003840154905061185681611c53565b6118636060870182611481565b5061186d81611c87565b61187a6080870182611522565b50819250505092915050565b61188f81611be3565b82525050565b61189e81611be3565b82525050565b60006020820190506118b9600083018461149f565b92915050565b600060208201905081810360008301526118d981846114ae565b905092915050565b60006020820190506118f66000830184611540565b92915050565b600060a0820190508181036000830152611916818861154f565b9050818103602083015261192a818761154f565b90506119396040830186611895565b6119466060830185611490565b6119536080830184611531565b9695505050505050565b6000602082019050818103600083015261197681611617565b9050919050565b600060208201905081810360008301526119968161167d565b9050919050565b600060208201905081810360008301526119b6816116bd565b9050919050565b600060208201905081810360008301526119d681611723565b9050919050565b600060208201905081810360008301526119f681611789565b9050919050565b6000602082019050611a126000830184611895565b92915050565b6000606082019050611a2d6000830186611895565b611a3a6020830185611490565b611a476040830184611531565b949350505050565b6000604051905081810181811067ffffffffffffffff82111715611a7657611a75611ca1565b5b8060405250919050565b600067ffffffffffffffff821115611a9b57611a9a611ca1565b5b602082029050602081019050919050565b600067ffffffffffffffff821115611ac757611ac6611ca1565b5b601f19601f8301169050602081019050919050565b60008190508160005260206000209050919050565b60008190508160005260206000209050919050565b600081549050919050565b600081519050919050565b6000600482019050919050565b600082825260208201905092915050565b600082825260208201905092915050565b600082825260208201905092915050565b600073ffffffffffffffffffffffffffffffffffffffff82169050919050565b600060ff82169050919050565b6000819050919050565b6000611b9e82611bc3565b9050919050565b6000611bb082611bc3565b9050919050565b60008115159050919050565b600073ffffffffffffffffffffffffffffffffffffffff82169050919050565b6000819050919050565b6000611bf882611bff565b9050919050565b6000611c0a82611bc3565b9050919050565b82818337600083830152505050565b60005b83811015611c3e578082015181840152602081019050611c23565b83811115611c4d576000848401525b50505050565b6000611c66611c6183611cb4565b611b5c565b9050919050565b6000611c80611c7b83611cb4565b611b89565b9050919050565b6000611c9a611c9583611cc1565b611b7c565b9050919050565bfe5b6000601f19601f8301169050919050565b60008160001c9050919050565b60008160a01c9050919050565b611cd781611ba5565b8114611ce257600080fd5b50565b611cee81611bb7565b8114611cf957600080fd5b50565b611d0581611be3565b8114611d1057600080fd5b5056fea264697066735822122023b35a6ded18456a24a054f8e969b4df526277b17c0d58720adddab2b796486564736f6c63430007040033608060405234801561001057600080fd5b5061079e806100206000396000f3fe608060405234801561001057600080fd5b506004361061002b5760003560e01c8063bde5ce9e14610030575b600080fd5b61004a600480360381019061004591906103d5565b610060565b6040516100579190610582565b60405180910390f35b6060610072826000600185510361007a565b819050919050565b60008290506000829050808214156100935750506101ca565b61009b6101cf565b856002868603816100a857fe5b058601815181106100b557fe5b602002602001015190505b81831361019e575b80604001518684815181106100d957fe5b60200260200101516040015110156100f85782806001019350506100c8565b5b85828151811061010557fe5b6020026020010151604001518160400151101561012a578180600190039250506100f9565b8183136101995785828151811061013d57fe5b602002602001015186848151811061015157fe5b602002602001015187858151811061016557fe5b6020026020010188858151811061017857fe5b60200260200101829052829052505082806001019350508180600190039250505b6100c0565b818512156101b2576101b186868461007a565b5b838312156101c6576101c586848661007a565b5b5050505b505050565b6040518060a00160405280606081526020016060815260200160008152602001600073ffffffffffffffffffffffffffffffffffffffff1681526020016000151581525090565b60008135905061022581610723565b92915050565b600082601f83011261023c57600080fd5b813561024f61024a826105d5565b6105a4565b9150818183526020840193506020810190508360005b83811015610295578135860161027b8882610308565b845260208401935060208301925050600181019050610265565b5050505092915050565b6000813590506102ae8161073a565b92915050565b600082601f8301126102c557600080fd5b81356102d86102d382610601565b6105a4565b915080825260208301602083018583830111156102f457600080fd5b6102ff8382846106ce565b50505092915050565b600060a0828403121561031a57600080fd5b61032460a06105a4565b9050600082013567ffffffffffffffff81111561034057600080fd5b61034c848285016102b4565b600083015250602082013567ffffffffffffffff81111561036c57600080fd5b610378848285016102b4565b602083015250604061038c848285016103c0565b60408301525060606103a084828501610216565b60608301525060806103b48482850161029f565b60808301525092915050565b6000813590506103cf81610751565b92915050565b6000602082840312156103e757600080fd5b600082013567ffffffffffffffff81111561040157600080fd5b61040d8482850161022b565b91505092915050565b600061042283836104f6565b905092915050565b61043381610686565b82525050565b600061044482610641565b61044e8185610664565b93508360208202850161046085610631565b8060005b8581101561049c578484038952815161047d8582610416565b945061048883610657565b925060208a01995050600181019050610464565b50829750879550505050505092915050565b6104b781610698565b82525050565b60006104c88261064c565b6104d28185610675565b93506104e28185602086016106dd565b6104eb81610712565b840191505092915050565b600060a083016000830151848203600086015261051382826104bd565b9150506020830151848203602086015261052d82826104bd565b91505060408301516105426040860182610573565b506060830151610555606086018261042a565b50608083015161056860808601826104ae565b508091505092915050565b61057c816106c4565b82525050565b6000602082019050818103600083015261059c8184610439565b905092915050565b6000604051905081810181811067ffffffffffffffff821117156105cb576105ca610710565b5b8060405250919050565b600067ffffffffffffffff8211156105f0576105ef610710565b5b602082029050602081019050919050565b600067ffffffffffffffff82111561061c5761061b610710565b5b601f19601f8301169050602081019050919050565b6000819050602082019050919050565b600081519050919050565b600081519050919050565b6000602082019050919050565b600082825260208201905092915050565b600082825260208201905092915050565b6000610691826106a4565b9050919050565b60008115159050919050565b600073ffffffffffffffffffffffffffffffffffffffff82169050919050565b6000819050919050565b82818337600083830152505050565b60005b838110156106fb5780820151818401526020810190506106e0565b8381111561070a576000848401525b50505050565bfe5b6000601f19601f8301169050919050565b61072c81610686565b811461073757600080fd5b50565b61074381610698565b811461074e57600080fd5b50565b61075a816106c4565b811461076557600080fd5b5056fea2646970667358221220268d0d3b852c27174c326e5c251bfb94751fb6939269a5419dcf82e7440c292c64736f6c63430007040033",
  "immutableReferences": {},
  "source": "// SPDX-License-Identifier: GPL-3.0\npragma solidity >=0.7.4 <0.9.0;\npragma experimental ABIEncoderV2;\n\nimport \"./DataTypes.sol\";\nimport \"./IClasify.sol\";\nimport \"./SortedClasificator.sol\"; \n\ncontract StipendCenter {\n    \n    DataTypes.Candidate[] public candidates;\n    DataTypes.Dispute[] public disputes;\n    uint public stake;\n    address public owner;\n    address public keeper;\n    uint public startDate;\n    uint public clasationPeriod;\n    uint public disputePeriod;\n    IClasify public clasificator;\n    \n    constructor(uint _stake, address _keeper, uint _clasationPeriod, uint _disputePeriod) {\n        owner = msg.sender;\n        stake = _stake;\n        keeper = _keeper;\n        startDate = block.timestamp;\n        clasationPeriod = _clasationPeriod;\n        disputePeriod = _disputePeriod;\n        \n        //hardcoded\n        clasificator = new SortedClasificator();\n    }\n    \n    modifier inClastaionState() {\n        // require(block.timestamp < startDate + clasationPeriod * 1 days, \"Clasation period is over!\");\n        _;\n    }\n    \n    modifier inDesputeState(){\n        // require(block.timestamp < startDate + clasationPeriod * 1 days + disputePeriod * 1 days, \"Dispute period is over!\");\n        _;\n    }\n    \n    modifier inFinalState(){\n        // require(block.timestamp >= startDate + clasationPeriod  * 1 days+ disputePeriod * 1 days, \"Dispute period is over!\");\n        _;\n    }\n    \n    function createClasation() external inDesputeState {\n        DataTypes.Candidate[] memory x = clasificator.createClasation(candidates);\n\n        for(uint i = 0; i < candidates.length; i++){\n            candidates[i] = x[candidates.length - 1 - i];\n        }\n    }\n    \n    function receiveStipends(uint nStipends) external payable inFinalState{\n        uint singleTransfer = msg.value / candidates.length;\n        uint i = 0;\n        for(uint j = 0; j < nStipends && i <  candidates.length; i++){\n            if(candidates[i].Valid){\n                candidates[i].Address.transfer(singleTransfer + stake);\n                j++;\n            }\n        }\n        \n        while(i <  candidates.length){\n            if(candidates[i].Valid){\n                candidates[i].Address.transfer(stake);\n            }\n            i++;\n        }\n    }\n\n    event NewCandidate();\n\n    function addNewCandidate(string memory name, string memory facultyNumber, uint grade, address payable studentAddress) external payable inClastaionState{\n        require(studentAddress == msg.sender, \"StudentAddress and sender must be the same address\");\n        require(msg.value == stake, \"The send value is different than the required!\");\n        DataTypes.Candidate memory newCandidate = DataTypes.Candidate(name, facultyNumber, grade, studentAddress, true);\n        candidates.push(newCandidate);\n        emit NewCandidate();\n    }\n\n    function getCandidatesNum() public view returns (uint) {\n        return candidates.length;\n    }\n    \n    event NewDispute();\n    function opendDispute(uint id, address payable openBy) external inDesputeState{\n        require(openBy == msg.sender, \"OpenBy and sender must be the same address\");\n        DataTypes.Dispute memory newDispute = DataTypes.Dispute(id, openBy, true);\n        disputes.push(newDispute);\n        emit NewDispute();\n    }\n    \n    function getDisputeNum() public view returns (uint) {\n        return disputes.length;\n    }\n    \n    function resolveDisput(uint disputeId, bool isValid) external inDesputeState{\n        require(disputes[disputeId].Open, \"This dispute is already closed!\");\n        require(msg.sender == keeper, \"Only the keeper can resolve Disputes!\");\n        if(!isValid){\n            candidates[disputes[disputeId].CandidateId].Valid = false;\n            disputes[disputeId].OpenedBy.transfer(stake);\n        }\n        disputes[disputeId].Open = false;\n    }\n}\n\n\n\n\n",
  "sourcePath": "/home/ioan681/Desktop/Projects/fmi-blockchain/contracts/StipendCenter.sol",
  "compiler": {
    "name": "solc",
    "version": "0.7.4+commit.3f05b770.Emscripten.clang"
  },
  "schemaVersion": "3.3.3",
  "updatedAt": "2021-02-15T07:39:40.485Z",
  "networkType": "ethereum",
  "devdoc": {
    "kind": "dev",
    "methods": {},
    "version": 1
  },
  "userdoc": {
    "kind": "user",
    "methods": {},
    "version": 1
  }
}